{
  "_format": "hh-sol-artifact-1",
  "contractName": "SaveERC20",
  "sourceName": "contracts/SaveERC20.sol",
  "abi": [
    {
      "inputs": [
        {
          "internalType": "address",
          "name": "_savingToken",
          "type": "address"
        }
      ],
      "stateMutability": "nonpayable",
      "type": "constructor"
    },
    {
      "anonymous": false,
      "inputs": [
        {
          "indexed": false,
          "internalType": "address",
          "name": "sender",
          "type": "address"
        },
        {
          "indexed": false,
          "internalType": "uint256",
          "name": "amount",
          "type": "uint256"
        }
      ],
      "name": "SavingSuccessful",
      "type": "event"
    },
    {
      "anonymous": false,
      "inputs": [
        {
          "indexed": false,
          "internalType": "address",
          "name": "receiver",
          "type": "address"
        },
        {
          "indexed": false,
          "internalType": "uint256",
          "name": "amount",
          "type": "uint256"
        }
      ],
      "name": "WithdrawSuccessful",
      "type": "event"
    },
    {
      "inputs": [],
      "name": "checkContractBalance",
      "outputs": [
        {
          "internalType": "uint256",
          "name": "",
          "type": "uint256"
        }
      ],
      "stateMutability": "view",
      "type": "function"
    },
    {
      "inputs": [
        {
          "internalType": "address",
          "name": "_user",
          "type": "address"
        }
      ],
      "name": "checkUserBalance",
      "outputs": [
        {
          "internalType": "uint256",
          "name": "",
          "type": "uint256"
        }
      ],
      "stateMutability": "view",
      "type": "function"
    },
    {
      "inputs": [
        {
          "internalType": "uint256",
          "name": "_amount",
          "type": "uint256"
        }
      ],
      "name": "deposit",
      "outputs": [],
      "stateMutability": "nonpayable",
      "type": "function"
    },
    {
      "inputs": [
        {
          "internalType": "uint256",
          "name": "_amount",
          "type": "uint256"
        }
      ],
      "name": "ownerWithdraw",
      "outputs": [],
      "stateMutability": "nonpayable",
      "type": "function"
    },
    {
      "inputs": [
        {
          "internalType": "uint256",
          "name": "_amount",
          "type": "uint256"
        }
      ],
      "name": "withdraw",
      "outputs": [],
      "stateMutability": "nonpayable",
      "type": "function"
    }
  ],
  "bytecode": "0x60806040523480156200001157600080fd5b50604051620010ba380380620010ba833981810160405281019062000037919062000129565b806000806101000a81548173ffffffffffffffffffffffffffffffffffffffff021916908373ffffffffffffffffffffffffffffffffffffffff16021790555033600160006101000a81548173ffffffffffffffffffffffffffffffffffffffff021916908373ffffffffffffffffffffffffffffffffffffffff160217905550506200015b565b600080fd5b600073ffffffffffffffffffffffffffffffffffffffff82169050919050565b6000620000f182620000c4565b9050919050565b6200010381620000e4565b81146200010f57600080fd5b50565b6000815190506200012381620000f8565b92915050565b600060208284031215620001425762000141620000bf565b5b6000620001528482850162000112565b91505092915050565b610f4f806200016b6000396000f3fe608060405234801561001057600080fd5b50600436106100575760003560e01c80630a9bfef51461005c5780632e1a7d4d1461008c57806333f707d1146100a857806350312c9e146100c4578063b6b55f25146100e2575b600080fd5b61007660048036038101906100719190610926565b6100fe565b604051610083919061096c565b60405180910390f35b6100a660048036038101906100a191906109b3565b610147565b005b6100c260048036038101906100bd91906109b3565b6103f0565b005b6100cc610522565b6040516100d9919061096c565b60405180910390f35b6100fc60048036038101906100f791906109b3565b6105c4565b005b6000600260008373ffffffffffffffffffffffffffffffffffffffff1673ffffffffffffffffffffffffffffffffffffffff168152602001908152602001600020549050919050565b600073ffffffffffffffffffffffffffffffffffffffff163373ffffffffffffffffffffffffffffffffffffffff16036101b6576040517f08c379a00000000000000000000000000000000000000000000000000000000081526004016101ad90610a3d565b60405180910390fd5b600081116101f9576040517f08c379a00000000000000000000000000000000000000000000000000000000081526004016101f090610aa9565b60405180910390fd5b6000600260003373ffffffffffffffffffffffffffffffffffffffff1673ffffffffffffffffffffffffffffffffffffffff16815260200190815260200160002054905081811015610280576040517f08c379a000000000000000000000000000000000000000000000000000000000815260040161027790610b15565b60405180910390fd5b81600260003373ffffffffffffffffffffffffffffffffffffffff1673ffffffffffffffffffffffffffffffffffffffff16815260200190815260200160002060008282546102cf9190610b64565b9250508190555060008054906101000a900473ffffffffffffffffffffffffffffffffffffffff1673ffffffffffffffffffffffffffffffffffffffff1663a9059cbb33846040518363ffffffff1660e01b8152600401610331929190610ba7565b6020604051808303816000875af1158015610350573d6000803e3d6000fd5b505050506040513d601f19601f820116820180604052508101906103749190610c08565b6103b3576040517f08c379a00000000000000000000000000000000000000000000000000000000081526004016103aa90610c81565b60405180910390fd5b7f84e742a3ea03623687a5febaa797636d728230721d4b3d1405d19fbbc16298d933836040516103e4929190610ba7565b60405180910390a15050565b600160009054906101000a900473ffffffffffffffffffffffffffffffffffffffff1673ffffffffffffffffffffffffffffffffffffffff163373ffffffffffffffffffffffffffffffffffffffff1614610480576040517f08c379a000000000000000000000000000000000000000000000000000000000815260040161047790610ced565b60405180910390fd5b60008054906101000a900473ffffffffffffffffffffffffffffffffffffffff1673ffffffffffffffffffffffffffffffffffffffff1663a9059cbb33836040518363ffffffff1660e01b81526004016104db929190610ba7565b6020604051808303816000875af11580156104fa573d6000803e3d6000fd5b505050506040513d601f19601f8201168201806040525081019061051e9190610c08565b5050565b60008060009054906101000a900473ffffffffffffffffffffffffffffffffffffffff1673ffffffffffffffffffffffffffffffffffffffff166370a08231306040518263ffffffff1660e01b815260040161057e9190610d0d565b602060405180830381865afa15801561059b573d6000803e3d6000fd5b505050506040513d601f19601f820116820180604052508101906105bf9190610d3d565b905090565b600073ffffffffffffffffffffffffffffffffffffffff163373ffffffffffffffffffffffffffffffffffffffff1603610633576040517f08c379a000000000000000000000000000000000000000000000000000000000815260040161062a90610a3d565b60405180910390fd5b60008111610676576040517f08c379a000000000000000000000000000000000000000000000000000000000815260040161066d90610db6565b60405180910390fd5b8060008054906101000a900473ffffffffffffffffffffffffffffffffffffffff1673ffffffffffffffffffffffffffffffffffffffff166370a08231336040518263ffffffff1660e01b81526004016106d09190610d0d565b602060405180830381865afa1580156106ed573d6000803e3d6000fd5b505050506040513d601f19601f820116820180604052508101906107119190610d3d565b1015610752576040517f08c379a000000000000000000000000000000000000000000000000000000000815260040161074990610e22565b60405180910390fd5b60008054906101000a900473ffffffffffffffffffffffffffffffffffffffff1673ffffffffffffffffffffffffffffffffffffffff166323b872dd3330846040518463ffffffff1660e01b81526004016107af93929190610e42565b6020604051808303816000875af11580156107ce573d6000803e3d6000fd5b505050506040513d601f19601f820116820180604052508101906107f29190610c08565b610831576040517f08c379a000000000000000000000000000000000000000000000000000000000815260040161082890610ec5565b60405180910390fd5b80600260003373ffffffffffffffffffffffffffffffffffffffff1673ffffffffffffffffffffffffffffffffffffffff16815260200190815260200160002060008282546108809190610ee5565b925050819055507f62d8fec9f61d4b47a4873e3c6baf9e3834c5d36a06c7035b3e2f4239b6fd6d6933826040516108b8929190610ba7565b60405180910390a150565b600080fd5b600073ffffffffffffffffffffffffffffffffffffffff82169050919050565b60006108f3826108c8565b9050919050565b610903816108e8565b811461090e57600080fd5b50565b600081359050610920816108fa565b92915050565b60006020828403121561093c5761093b6108c3565b5b600061094a84828501610911565b91505092915050565b6000819050919050565b61096681610953565b82525050565b6000602082019050610981600083018461095d565b92915050565b61099081610953565b811461099b57600080fd5b50565b6000813590506109ad81610987565b92915050565b6000602082840312156109c9576109c86108c3565b5b60006109d78482850161099e565b91505092915050565b600082825260208201905092915050565b7f61646472657373207a65726f2064657465637465640000000000000000000000600082015250565b6000610a276015836109e0565b9150610a32826109f1565b602082019050919050565b60006020820190508181036000830152610a5681610a1a565b9050919050565b7f63616e2774207769746864726177207a65726f2076616c756500000000000000600082015250565b6000610a936019836109e0565b9150610a9e82610a5d565b602082019050919050565b60006020820190508181036000830152610ac281610a86565b9050919050565b7f696e73756666696369656e742066756e64730000000000000000000000000000600082015250565b6000610aff6012836109e0565b9150610b0a82610ac9565b602082019050919050565b60006020820190508181036000830152610b2e81610af2565b9050919050565b7f4e487b7100000000000000000000000000000000000000000000000000000000600052601160045260246000fd5b6000610b6f82610953565b9150610b7a83610953565b9250828203905081811115610b9257610b91610b35565b5b92915050565b610ba1816108e8565b82525050565b6000604082019050610bbc6000830185610b98565b610bc9602083018461095d565b9392505050565b60008115159050919050565b610be581610bd0565b8114610bf057600080fd5b50565b600081519050610c0281610bdc565b92915050565b600060208284031215610c1e57610c1d6108c3565b5b6000610c2c84828501610bf3565b91505092915050565b7f6661696c656420746f2077697468647261770000000000000000000000000000600082015250565b6000610c6b6012836109e0565b9150610c7682610c35565b602082019050919050565b60006020820190508181036000830152610c9a81610c5e565b9050919050565b7f6e6f74206f776e65720000000000000000000000000000000000000000000000600082015250565b6000610cd76009836109e0565b9150610ce282610ca1565b602082019050919050565b60006020820190508181036000830152610d0681610cca565b9050919050565b6000602082019050610d226000830184610b98565b92915050565b600081519050610d3781610987565b92915050565b600060208284031215610d5357610d526108c3565b5b6000610d6184828501610d28565b91505092915050565b7f63616e27742073617665207a65726f2076616c75650000000000000000000000600082015250565b6000610da06015836109e0565b9150610dab82610d6a565b602082019050919050565b60006020820190508181036000830152610dcf81610d93565b9050919050565b7f6e6f7420656e6f75676820746f6b656e00000000000000000000000000000000600082015250565b6000610e0c6010836109e0565b9150610e1782610dd6565b602082019050919050565b60006020820190508181036000830152610e3b81610dff565b9050919050565b6000606082019050610e576000830186610b98565b610e646020830185610b98565b610e71604083018461095d565b949350505050565b7f6661696c656420746f207472616e736665720000000000000000000000000000600082015250565b6000610eaf6012836109e0565b9150610eba82610e79565b602082019050919050565b60006020820190508181036000830152610ede81610ea2565b9050919050565b6000610ef082610953565b9150610efb83610953565b9250828201905080821115610f1357610f12610b35565b5b9291505056fea26469706673582212204f9a046ecfaf0a2c962ad0088afefc32a42fa9b171424707d45af8d4ea047b5d64736f6c63430008180033",
  "linkReferences": {},
  "deployedLinkReferences": {}
}